{
  "contractName": "data_types",
  "abi": [
    {
      "inputs": [
        {
          "internalType": "uint256",
          "name": "",
          "type": "uint256"
        }
      ],
      "name": "users",
      "outputs": [
        {
          "internalType": "string",
          "name": "name",
          "type": "string"
        },
        {
          "internalType": "string",
          "name": "country",
          "type": "string"
        }
      ],
      "stateMutability": "view",
      "type": "function",
      "constant": true
    },
    {
      "inputs": [
        {
          "internalType": "string",
          "name": "_name",
          "type": "string"
        },
        {
          "internalType": "string",
          "name": "_country",
          "type": "string"
        }
      ],
      "name": "AddUser",
      "outputs": [],
      "stateMutability": "nonpayable",
      "type": "function"
    },
    {
      "inputs": [
        {
          "internalType": "uint256",
          "name": "index",
          "type": "uint256"
        }
      ],
      "name": "GetUser",
      "outputs": [
        {
          "internalType": "string",
          "name": "",
          "type": "string"
        },
        {
          "internalType": "string",
          "name": "",
          "type": "string"
        }
      ],
      "stateMutability": "view",
      "type": "function",
      "constant": true
    }
  ],
  "bytecode": "0x608060405234801561001057600080fd5b50610859806100206000396000f3fe608060405234801561001057600080fd5b50600436106100415760003560e01c8063070f1d5214610046578063365b98b214610077578063b64f1865146100a8575b600080fd5b610060600480360381019061005b91906104e9565b6100c4565b60405161006e9291906105af565b60405180910390f35b610091600480360381019061008c91906104e9565b610232565b60405161009f9291906105af565b60405180910390f35b6100c260048036038101906100bd919061071b565b610376565b005b606080600083815481106100db576100da610793565b5b906000526020600020906002020160000160008481548110610100576100ff610793565b5b906000526020600020906002020160010181805461011d906107f1565b80601f0160208091040260200160405190810160405280929190818152602001828054610149906107f1565b80156101965780601f1061016b57610100808354040283529160200191610196565b820191906000526020600020905b81548152906001019060200180831161017957829003601f168201915b505050505091508080546101a9906107f1565b80601f01602080910402602001604051908101604052809291908181526020018280546101d5906107f1565b80156102225780601f106101f757610100808354040283529160200191610222565b820191906000526020600020905b81548152906001019060200180831161020557829003601f168201915b5050505050905091509150915091565b6000818154811061024257600080fd5b9060005260206000209060020201600091509050806000018054610265906107f1565b80601f0160208091040260200160405190810160405280929190818152602001828054610291906107f1565b80156102de5780601f106102b3576101008083540402835291602001916102de565b820191906000526020600020905b8154815290600101906020018083116102c157829003601f168201915b5050505050908060010180546102f3906107f1565b80601f016020809104026020016040519081016040528092919081815260200182805461031f906107f1565b801561036c5780601f106103415761010080835404028352916020019161036c565b820191906000526020600020905b81548152906001019060200180831161034f57829003601f168201915b5050505050905082565b60006040518060400160405280848152602001838152509050600081908060018154018082558091505060019003906000526020600020906002020160009091909190915060008201518160000190805190602001906103d79291906103fc565b5060208201518160010190805190602001906103f49291906103fc565b505050505050565b828054610408906107f1565b90600052602060002090601f01602090048101928261042a5760008555610471565b82601f1061044357805160ff1916838001178555610471565b82800160010185558215610471579182015b82811115610470578251825591602001919060010190610455565b5b50905061047e9190610482565b5090565b5b8082111561049b576000816000905550600101610483565b5090565b6000604051905090565b600080fd5b600080fd5b6000819050919050565b6104c6816104b3565b81146104d157600080fd5b50565b6000813590506104e3816104bd565b92915050565b6000602082840312156104ff576104fe6104a9565b5b600061050d848285016104d4565b91505092915050565b600081519050919050565b600082825260208201905092915050565b60005b83811015610550578082015181840152602081019050610535565b8381111561055f576000848401525b50505050565b6000601f19601f8301169050919050565b600061058182610516565b61058b8185610521565b935061059b818560208601610532565b6105a481610565565b840191505092915050565b600060408201905081810360008301526105c98185610576565b905081810360208301526105dd8184610576565b90509392505050565b600080fd5b600080fd5b7f4e487b7100000000000000000000000000000000000000000000000000000000600052604160045260246000fd5b61062882610565565b810181811067ffffffffffffffff82111715610647576106466105f0565b5b80604052505050565b600061065a61049f565b9050610666828261061f565b919050565b600067ffffffffffffffff821115610686576106856105f0565b5b61068f82610565565b9050602081019050919050565b82818337600083830152505050565b60006106be6106b98461066b565b610650565b9050828152602081018484840111156106da576106d96105eb565b5b6106e584828561069c565b509392505050565b600082601f830112610702576107016105e6565b5b81356107128482602086016106ab565b91505092915050565b60008060408385031215610732576107316104a9565b5b600083013567ffffffffffffffff8111156107505761074f6104ae565b5b61075c858286016106ed565b925050602083013567ffffffffffffffff81111561077d5761077c6104ae565b5b610789858286016106ed565b9150509250929050565b7f4e487b7100000000000000000000000000000000000000000000000000000000600052603260045260246000fd5b7f4e487b7100000000000000000000000000000000000000000000000000000000600052602260045260246000fd5b6000600282049050600182168061080957607f821691505b6020821081141561081d5761081c6107c2565b5b5091905056fea2646970667358221220e2c7f86e155ba0578b10489109c9665f272777bf4a3514f0a0590c1a969a452464736f6c63430008090033",
  "immutableReferences": {},
  "source": "// SPDX-License-Identifier: MIT\npragma solidity >=0.4.22 <0.9.0;\n\ncontract data_types {\n  struct User {\n    string name;\n    string country;\n  }\n\n  User[] public users;\n\n  function AddUser(string memory _name, string memory _country) public {\n    User memory _user = User(_name, _country);\n    users.push(_user);\n  }\n\n  function GetUser(uint index) public view returns (string memory, string memory){\n    return (users[index].name, users[index].country);\n  }\n}\n",
  "sourcePath": "/home/talabi/Repo/bezaeel/bchain/Solidity101/contracts/data_types.sol",
  "compiler": {
    "name": "solc",
    "version": "0.8.9+commit.e5eed63a.Emscripten.clang"
  },
  "schemaVersion": "3.4.3",
  "updatedAt": "2021-11-07T00:55:52.789Z",
  "networkType": "ethereum",
  "devdoc": {
    "kind": "dev",
    "methods": {},
    "version": 1
  },
  "userdoc": {
    "kind": "user",
    "methods": {},
    "version": 1
  }
}